{
  "transactions": [
    {
      "hash": "0x89ecf1dd1cf741245944d358aa2ac064189861d898e660462552da169fa9e14d",
      "transactionType": "CALL",
      "contractName": null,
      "contractAddress": "0x8732384bceb0c864e9865c96ff755b64767bcb17",
      "function": "donateETH()",
      "arguments": [],
      "transaction": {
        "from": "0xcd949192344f41de8d99336a4f32bb0b9c04e577",
        "to": "0x8732384bceb0c864e9865c96ff755b64767bcb17",
        "gas": "0x2716c",
        "value": "0x5af3107a4000",
        "input": "0x8b4c40b0",
        "nonce": "0x10",
        "chainId": "0xa4b1"
      },
      "additionalContracts": [],
      "isFixedGasLimit": false
    },
    {
      "hash": "0xfbb2e6b78c62afe1dda3f72ea6b8dac47cbc465bbcb9a7cabb4f314ebed8a36f",
      "transactionType": "CALL",
      "contractName": null,
      "contractAddress": "0xaf88d065e77c8cc2239327c5edb3a432268e5831",
      "function": "approve(address,uint256)",
      "arguments": [
        "0x8732384BcEb0C864E9865c96ff755b64767bCB17",
        "100000"
      ],
      "transaction": {
        "from": "0xcd949192344f41de8d99336a4f32bb0b9c04e577",
        "to": "0xaf88d065e77c8cc2239327c5edb3a432268e5831",
        "gas": "0x13e30",
        "value": "0x0",
        "input": "0x095ea7b30000000000000000000000008732384bceb0c864e9865c96ff755b64767bcb1700000000000000000000000000000000000000000000000000000000000186a0",
        "nonce": "0x11",
        "chainId": "0xa4b1"
      },
      "additionalContracts": [],
      "isFixedGasLimit": false
    },
    {
      "hash": "0x6bf6d0bb39688df185e6da6f6e21eecfed7f8b66eba806efe3f7d96fe583c687",
      "transactionType": "CALL",
      "contractName": null,
      "contractAddress": "0x8732384bceb0c864e9865c96ff755b64767bcb17",
      "function": "donateERC20(address,uint256)",
      "arguments": [
        "0xaf88d065e77c8cC2239327C5EDb3A432268e5831",
        "100000"
      ],
      "transaction": {
        "from": "0xcd949192344f41de8d99336a4f32bb0b9c04e577",
        "to": "0x8732384bceb0c864e9865c96ff755b64767bcb17",
        "gas": "0x2b9a4",
        "value": "0x0",
        "input": "0xef99fb02000000000000000000000000af88d065e77c8cc2239327c5edb3a432268e583100000000000000000000000000000000000000000000000000000000000186a0",
        "nonce": "0x12",
        "chainId": "0xa4b1"
      },
      "additionalContracts": [],
      "isFixedGasLimit": false
    },
    {
      "hash": "0xadf6be4db0d742e74a2c6d2c4966e092370da03006a1533fa0d2fc0b80608bbd",
      "transactionType": "CALL",
      "contractName": null,
      "contractAddress": "0x8732384bceb0c864e9865c96ff755b64767bcb17",
      "function": "withdraw(address,uint256)",
      "arguments": [
        "0x0000000000000000000000000000000000000000",
        "50000000000000"
      ],
      "transaction": {
        "from": "0xcd949192344f41de8d99336a4f32bb0b9c04e577",
        "to": "0x8732384bceb0c864e9865c96ff755b64767bcb17",
        "gas": "0xb8fc",
        "value": "0x0",
        "input": "0xf3fef3a3000000000000000000000000000000000000000000000000000000000000000000000000000000000000000000000000000000000000000000002d79883d2000",
        "nonce": "0x13",
        "chainId": "0xa4b1"
      },
      "additionalContracts": [],
      "isFixedGasLimit": false
    },
    {
      "hash": "0x1671593457360b7c57f31264d24c73fcb79cb8d4d64bafe3b1d262ccd857f45b",
      "transactionType": "CALL",
      "contractName": null,
      "contractAddress": "0x8732384bceb0c864e9865c96ff755b64767bcb17",
      "function": "withdraw(address,uint256)",
      "arguments": [
        "0xaf88d065e77c8cC2239327C5EDb3A432268e5831",
        "50000"
      ],
      "transaction": {
        "from": "0xcd949192344f41de8d99336a4f32bb0b9c04e577",
        "to": "0x8732384bceb0c864e9865c96ff755b64767bcb17",
        "gas": "0x126d8",
        "value": "0x0",
        "input": "0xf3fef3a3000000000000000000000000af88d065e77c8cc2239327c5edb3a432268e5831000000000000000000000000000000000000000000000000000000000000c350",
        "nonce": "0x14",
        "chainId": "0xa4b1"
      },
      "additionalContracts": [],
      "isFixedGasLimit": false
    }
  ],
  "receipts": [
    {
      "status": "0x1",
      "cumulativeGasUsed": "0x1d7ef",
      "logs": [
        {
          "address": "0x8732384bceb0c864e9865c96ff755b64767bcb17",
          "topics": [
            "0xce9409ee3dc10e35de83dda0f830e4a13935452188fe71a956b850ecb839425f",
            "0x000000000000000000000000cd949192344f41de8d99336a4f32bb0b9c04e577",
            "0x0000000000000000000000000000000000000000000000000000000000000000"
          ],
          "data": "0x00000000000000000000000000000000000000000000000000005af3107a400000000000000000000000000000000000000000000000000003a0adea40498000",
          "blockHash": "0x5987318d53ff78c8267976e2ec1ba5a7e641b8b620932c3ee0f79026286b696f",
          "blockNumber": "0x1225793d",
          "transactionHash": "0x89ecf1dd1cf741245944d358aa2ac064189861d898e660462552da169fa9e14d",
          "transactionIndex": "0x1",
          "logIndex": "0x0",
          "removed": false
        }
      ],
      "logsBloom": "0x00000000000000080000000000000000000000000000000000000000000000000000000000000000020000000000000000000000000000200000000000000000000000000000000000000000000000000000000000000000000000000000000200000000020000000000000000008800000000000000000000000000000000000000000000000004000000000000000000000000400000000000000000000000000000000000000000000000000000000000000000000000000000000000000000000000800000000000000000000000000040000000000000000000000020000000000000000000000000000000000000000000000000000000000000000000",
      "type": "0x2",
      "transactionHash": "0x89ecf1dd1cf741245944d358aa2ac064189861d898e660462552da169fa9e14d",
      "transactionIndex": "0x1",
      "blockHash": "0x5987318d53ff78c8267976e2ec1ba5a7e641b8b620932c3ee0f79026286b696f",
      "blockNumber": "0x1225793d",
      "gasUsed": "0x1d7ef",
      "effectiveGasPrice": "0x989680",
      "from": "0xcd949192344f41de8d99336a4f32bb0b9c04e577",
      "to": "0x8732384bceb0c864e9865c96ff755b64767bcb17",
      "contractAddress": null,
      "gasUsedForL1": "0xd00",
      "l1BlockNumber": "0x14cd64e"
    },
    {
      "status": "0x1",
      "cumulativeGasUsed": "0xebd7",
      "logs": [
        {
          "address": "0xaf88d065e77c8cc2239327c5edb3a432268e5831",
          "topics": [
            "0x8c5be1e5ebec7d5bd14f71427d1e84f3dd0314c0f7b2291e5b200ac8c7c3b925",
            "0x000000000000000000000000cd949192344f41de8d99336a4f32bb0b9c04e577",
            "0x0000000000000000000000008732384bceb0c864e9865c96ff755b64767bcb17"
          ],
          "data": "0x00000000000000000000000000000000000000000000000000000000000186a0",
          "blockHash": "0xb6ae233489e08b2224e9eabd6d1a3f565be2cd9e97e9d7022a3d5799fc983afd",
          "blockNumber": "0x12257944",
          "transactionHash": "0xfbb2e6b78c62afe1dda3f72ea6b8dac47cbc465bbcb9a7cabb4f314ebed8a36f",
          "transactionIndex": "0x1",
          "logIndex": "0x0",
          "removed": false
        }
      ],
      "logsBloom": "0x00000000000000080000000400000000000000000000000000000000000000000000000000000000020000000000000000000001000000000000000000200000000000000000000000000000000000000000000000000000000000008000000200000000000008000000000000000000000000000000000000000000000000000000000000000000000000000000000000000000000000000000000000000000020000000000000000000000000000000000000000000000000000000000000000002000000000000000000000000000000000000000000000000000000000000010000000000000000000000000200000000000000000000000000000000000",
      "type": "0x2",
      "transactionHash": "0xfbb2e6b78c62afe1dda3f72ea6b8dac47cbc465bbcb9a7cabb4f314ebed8a36f",
      "transactionIndex": "0x1",
      "blockHash": "0xb6ae233489e08b2224e9eabd6d1a3f565be2cd9e97e9d7022a3d5799fc983afd",
      "blockNumber": "0x12257944",
      "gasUsed": "0xebd7",
      "effectiveGasPrice": "0x989680",
      "from": "0xcd949192344f41de8d99336a4f32bb0b9c04e577",
      "to": "0xaf88d065e77c8cc2239327c5edb3a432268e5831",
      "contractAddress": null,
      "gasUsedForL1": "0x134a",
      "l1BlockNumber": "0x14cd64e"
    },
    {
      "status": "0x1",
      "cumulativeGasUsed": "0x20c5f",
      "logs": [
        {
          "address": "0xaf88d065e77c8cc2239327c5edb3a432268e5831",
          "topics": [
            "0xddf252ad1be2c89b69c2b068fc378daa952ba7f163c4a11628f55a4df523b3ef",
            "0x000000000000000000000000cd949192344f41de8d99336a4f32bb0b9c04e577",
            "0x0000000000000000000000008732384bceb0c864e9865c96ff755b64767bcb17"
          ],
          "data": "0x00000000000000000000000000000000000000000000000000000000000186a0",
          "blockHash": "0x05cdf365fdd2b297edf2021437f04eecd999a71dfceb88f5762657a22e9e70d1",
          "blockNumber": "0x1225794b",
          "transactionHash": "0x6bf6d0bb39688df185e6da6f6e21eecfed7f8b66eba806efe3f7d96fe583c687",
          "transactionIndex": "0x1",
          "logIndex": "0x0",
          "removed": false
        },
        {
          "address": "0x8732384bceb0c864e9865c96ff755b64767bcb17",
          "topics": [
            "0xce9409ee3dc10e35de83dda0f830e4a13935452188fe71a956b850ecb839425f",
            "0x000000000000000000000000cd949192344f41de8d99336a4f32bb0b9c04e577",
            "0x000000000000000000000000af88d065e77c8cc2239327c5edb3a432268e5831"
          ],
          "data": "0x00000000000000000000000000000000000000000000000000000000000186a000000000000000000000000000000000000000000000000000000000000186a0",
          "blockHash": "0x05cdf365fdd2b297edf2021437f04eecd999a71dfceb88f5762657a22e9e70d1",
          "blockNumber": "0x1225794b",
          "transactionHash": "0x6bf6d0bb39688df185e6da6f6e21eecfed7f8b66eba806efe3f7d96fe583c687",
          "transactionIndex": "0x1",
          "logIndex": "0x1",
          "removed": false
        }
      ],
      "logsBloom": "0x00000000000000080000000400000000000000000000000000000000000000000000000000000000120000000000000000000001000000200000000000000000000000000000000000000008000000000000000000000000000000008000000200000000000008000000000000008000000000000000000000000010000000000000000000000004000000000000000000000000400000000000000000000000000000000000000000000000000000000000000000000000000000000400000000002002800000000000000000000000000040000000000000000000000000000000000000000000000000000000200000000000002000000000000000000000",
      "type": "0x2",
      "transactionHash": "0x6bf6d0bb39688df185e6da6f6e21eecfed7f8b66eba806efe3f7d96fe583c687",
      "transactionIndex": "0x1",
      "blockHash": "0x05cdf365fdd2b297edf2021437f04eecd999a71dfceb88f5762657a22e9e70d1",
      "blockNumber": "0x1225794b",
      "gasUsed": "0x20c5f",
      "effectiveGasPrice": "0x989680",
      "from": "0xcd949192344f41de8d99336a4f32bb0b9c04e577",
      "to": "0x8732384bceb0c864e9865c96ff755b64767bcb17",
      "contractAddress": null,
      "gasUsedForL1": "0x134a",
      "l1BlockNumber": "0x14cd64e"
    },
    {
      "status": "0x1",
      "cumulativeGasUsed": "0x2bf60",
      "logs": [
        {
          "address": "0x8732384bceb0c864e9865c96ff755b64767bcb17",
          "topics": [
            "0xeaff4b37086828766ad3268786972c0cd24259d4c87a80f9d3963a3c3d999b0d",
            "0x0000000000000000000000000000000000000000000000000000000000000000"
          ],
          "data": "0x00000000000000000000000000000000000000000000000000002d79883d2000",
          "blockHash": "0xba02d6bf90c210245b0019f79a517dbed876c118ca4731a3327839145a5ca907",
          "blockNumber": "0x12257954",
          "transactionHash": "0xadf6be4db0d742e74a2c6d2c4966e092370da03006a1533fa0d2fc0b80608bbd",
          "transactionIndex": "0x4",
          "logIndex": "0x2",
          "removed": false
        }
      ],
      "logsBloom": "0x00000000000000000000000000040000000000000000000000000000000000000000000000000000000000000000000000000000000000200000000000000000000000000000000000000000000000000000000000000000000000000000000000000002020000000000000000000800000000000000000000000000000000000000000000000000000000000000000000000004000000000000000000000000000000000000000000000000000000000000000000000000000000000000000000000000800000000000000000000000000040000000000000000000000020000000000000000000000000000000000000000000000000000000000000000000",
      "type": "0x2",
      "transactionHash": "0xadf6be4db0d742e74a2c6d2c4966e092370da03006a1533fa0d2fc0b80608bbd",
      "transactionIndex": "0x4",
      "blockHash": "0xba02d6bf90c210245b0019f79a517dbed876c118ca4731a3327839145a5ca907",
      "blockNumber": "0x12257954",
      "gasUsed": "0x991c",
      "effectiveGasPrice": "0x989680",
      "from": "0xcd949192344f41de8d99336a4f32bb0b9c04e577",
      "to": "0x8732384bceb0c864e9865c96ff755b64767bcb17",
      "contractAddress": null,
      "gasUsedForL1": "0x132e",
      "l1BlockNumber": "0x14cd64e"
    },
    {
      "status": "0x1",
      "cumulativeGasUsed": "0x3c4b2e",
      "logs": [
        {
          "address": "0xaf88d065e77c8cc2239327c5edb3a432268e5831",
          "topics": [
            "0xddf252ad1be2c89b69c2b068fc378daa952ba7f163c4a11628f55a4df523b3ef",
            "0x0000000000000000000000008732384bceb0c864e9865c96ff755b64767bcb17",
            "0x000000000000000000000000cd949192344f41de8d99336a4f32bb0b9c04e577"
          ],
          "data": "0x000000000000000000000000000000000000000000000000000000000000c350",
          "blockHash": "0xc8aa84b1a2060f6aa0c7d685d28f87a104696212b1b9af20ca0fc31ffec08d3f",
          "blockNumber": "0x1225795e",
          "transactionHash": "0x1671593457360b7c57f31264d24c73fcb79cb8d4d64bafe3b1d262ccd857f45b",
          "transactionIndex": "0x3",
          "logIndex": "0x18",
          "removed": false
        },
        {
          "address": "0x8732384bceb0c864e9865c96ff755b64767bcb17",
          "topics": [
            "0xeaff4b37086828766ad3268786972c0cd24259d4c87a80f9d3963a3c3d999b0d",
            "0x000000000000000000000000af88d065e77c8cc2239327c5edb3a432268e5831"
          ],
          "data": "0x000000000000000000000000000000000000000000000000000000000000c350",
          "blockHash": "0xc8aa84b1a2060f6aa0c7d685d28f87a104696212b1b9af20ca0fc31ffec08d3f",
          "blockNumber": "0x1225795e",
          "transactionHash": "0x1671593457360b7c57f31264d24c73fcb79cb8d4d64bafe3b1d262ccd857f45b",
          "transactionIndex": "0x3",
          "logIndex": "0x19",
          "removed": false
        }
      ],
      "logsBloom": "0x00000000000000080000000400040000000000000000000000000000000000000000000000000000120000000000000000000001000000200000000000000000000000000000000000000008000000000000000000000000000000008000000200000002000008000000000000000000000000000000000000000010000000000000000000000000000000000000000000000004000000000000000000000000000000000000000000000000000000000000000000000000000000000400000000002002800000000000000000000000000040000000000000000000000000000000000000000000000000000000200000000000002000000000000000000000",
      "type": "0x2",
      "transactionHash": "0x1671593457360b7c57f31264d24c73fcb79cb8d4d64bafe3b1d262ccd857f45b",
      "transactionIndex": "0x3",
      "blockHash": "0xc8aa84b1a2060f6aa0c7d685d28f87a104696212b1b9af20ca0fc31ffec08d3f",
      "blockNumber": "0x1225795e",
      "gasUsed": "0xe8c1",
      "effectiveGasPrice": "0x989680",
      "from": "0xcd949192344f41de8d99336a4f32bb0b9c04e577",
      "to": "0x8732384bceb0c864e9865c96ff755b64767bcb17",
      "contractAddress": null,
      "gasUsedForL1": "0x134a",
      "l1BlockNumber": "0x14cd650"
    }
  ],
  "libraries": [],
  "pending": [],
  "returns": {},
  "timestamp": 1739150669,
  "chain": 42161,
  "commit": "229f08d"
}