{
  "transactions": [
    {
      "hash": "0x6b314a5c8995fb41012879b6cb8be9a7ceb1d594ddc300fe6df1d54e0db9cdae",
      "transactionType": "CALL",
      "contractName": null,
      "contractAddress": "0x7db2542d15ac68c9958e8d73f32641ed9714fd6f",
      "function": "allowToken(address,bool)",
      "arguments": [
        "0x0000000000000000000000000000000000000000",
        "true"
      ],
      "transaction": {
        "from": "0x6a439b14f527d8731794b982d785b72f5d245c6f",
        "to": "0x7db2542d15ac68c9958e8d73f32641ed9714fd6f",
        "gas": "0x17e27",
        "value": "0x0",
        "input": "0x5bc35ae800000000000000000000000000000000000000000000000000000000000000000000000000000000000000000000000000000000000000000000000000000001",
        "nonce": "0x9",
        "chainId": "0xaa36a7"
      },
      "additionalContracts": [],
      "isFixedGasLimit": false
    },
    {
      "hash": "0xd114d046505cec617634cc62f8e3d9f1a42c6d400c78d553e6a59c2fbc641538",
      "transactionType": "CALL",
      "contractName": null,
      "contractAddress": "0x7db2542d15ac68c9958e8d73f32641ed9714fd6f",
      "function": "allowToken(address,bool)",
      "arguments": [
        "0x94a9D9AC8a22534E3FaCa9F4e7F2E2cf85d5E4C8",
        "true"
      ],
      "transaction": {
        "from": "0x6a439b14f527d8731794b982d785b72f5d245c6f",
        "to": "0x7db2542d15ac68c9958e8d73f32641ed9714fd6f",
        "gas": "0x19b91",
        "value": "0x0",
        "input": "0x5bc35ae800000000000000000000000094a9d9ac8a22534e3faca9f4e7f2e2cf85d5e4c80000000000000000000000000000000000000000000000000000000000000001",
        "nonce": "0xa",
        "chainId": "0xaa36a7"
      },
      "additionalContracts": [],
      "isFixedGasLimit": false
    },
    {
      "hash": "0x7ee32be31ea2581e0010ed060da99264196a21c75f47d078a5bfe9b78e358e5f",
      "transactionType": "CALL",
      "contractName": null,
      "contractAddress": "0x7db2542d15ac68c9958e8d73f32641ed9714fd6f",
      "function": "setPriceOracle(address,address)",
      "arguments": [
        "0x0000000000000000000000000000000000000000",
        "0x694AA1769357215DE4FAC081bf1f309aDC325306"
      ],
      "transaction": {
        "from": "0x6a439b14f527d8731794b982d785b72f5d245c6f",
        "to": "0x7db2542d15ac68c9958e8d73f32641ed9714fd6f",
        "gas": "0x10e6a",
        "value": "0x0",
        "input": "0x67a74ddc0000000000000000000000000000000000000000000000000000000000000000000000000000000000000000694aa1769357215de4fac081bf1f309adc325306",
        "nonce": "0xb",
        "chainId": "0xaa36a7"
      },
      "additionalContracts": [],
      "isFixedGasLimit": false
    },
    {
      "hash": "0xd114458196fe6b069f87fa6d4dcf641736aea61e2d024be0ae4f53f504ee5db2",
      "transactionType": "CALL",
      "contractName": null,
      "contractAddress": "0x7db2542d15ac68c9958e8d73f32641ed9714fd6f",
      "function": "setPriceOracle(address,address)",
      "arguments": [
        "0x94a9D9AC8a22534E3FaCa9F4e7F2E2cf85d5E4C8",
        "0xA2F78ab2355fe2f984D808B5CeE7FD0A93D5270E"
      ],
      "transaction": {
        "from": "0x6a439b14f527d8731794b982d785b72f5d245c6f",
        "to": "0x7db2542d15ac68c9958e8d73f32641ed9714fd6f",
        "gas": "0x10fb5",
        "value": "0x0",
        "input": "0x67a74ddc00000000000000000000000094a9d9ac8a22534e3faca9f4e7f2e2cf85d5e4c8000000000000000000000000a2f78ab2355fe2f984d808b5cee7fd0a93d5270e",
        "nonce": "0xc",
        "chainId": "0xaa36a7"
      },
      "additionalContracts": [],
      "isFixedGasLimit": false
    }
  ],
  "receipts": [
    {
      "status": "0x1",
      "cumulativeGasUsed": "0x8c56ee",
      "logs": [],
      "logsBloom": "0x00000000000000000000000000000000000000000000000000000000000000000000000000000000000000000000000000000000000000000000000000000000000000000000000000000000000000000000000000000000000000000000000000000000000000000000000000000000000000000000000000000000000000000000000000000000000000000000000000000000000000000000000000000000000000000000000000000000000000000000000000000000000000000000000000000000000000000000000000000000000000000000000000000000000000000000000000000000000000000000000000000000000000000000000000000000",
      "type": "0x2",
      "transactionHash": "0x6b314a5c8995fb41012879b6cb8be9a7ceb1d594ddc300fe6df1d54e0db9cdae",
      "transactionIndex": "0x70",
      "blockHash": "0x7142e250663cf5ba881a1baedf08055b98c796e6269074f5953ce96b1c794ed7",
      "blockNumber": "0x750e73",
      "gasUsed": "0x114ad",
      "effectiveGasPrice": "0x204c6a849",
      "from": "0x6a439b14f527d8731794b982d785b72f5d245c6f",
      "to": "0x7db2542d15ac68c9958e8d73f32641ed9714fd6f",
      "contractAddress": null
    },
    {
      "status": "0x1",
      "cumulativeGasUsed": "0x8d80e6",
      "logs": [],
      "logsBloom": "0x00000000000000000000000000000000000000000000000000000000000000000000000000000000000000000000000000000000000000000000000000000000000000000000000000000000000000000000000000000000000000000000000000000000000000000000000000000000000000000000000000000000000000000000000000000000000000000000000000000000000000000000000000000000000000000000000000000000000000000000000000000000000000000000000000000000000000000000000000000000000000000000000000000000000000000000000000000000000000000000000000000000000000000000000000000000",
      "type": "0x2",
      "transactionHash": "0xd114d046505cec617634cc62f8e3d9f1a42c6d400c78d553e6a59c2fbc641538",
      "transactionIndex": "0x71",
      "blockHash": "0x7142e250663cf5ba881a1baedf08055b98c796e6269074f5953ce96b1c794ed7",
      "blockNumber": "0x750e73",
      "gasUsed": "0x129f8",
      "effectiveGasPrice": "0x204c6a849",
      "from": "0x6a439b14f527d8731794b982d785b72f5d245c6f",
      "to": "0x7db2542d15ac68c9958e8d73f32641ed9714fd6f",
      "contractAddress": null
    },
    {
      "status": "0x1",
      "cumulativeGasUsed": "0x8e44ad",
      "logs": [
        {
          "address": "0x7db2542d15ac68c9958e8d73f32641ed9714fd6f",
          "topics": [
            "0x78f66d11c0fe8f0ce8dec169ad57f3438085a89b7371335b6e2b10e9685d7ecc",
            "0x0000000000000000000000000000000000000000000000000000000000000000",
            "0x000000000000000000000000694aa1769357215de4fac081bf1f309adc325306"
          ],
          "data": "0x",
          "blockHash": "0x7142e250663cf5ba881a1baedf08055b98c796e6269074f5953ce96b1c794ed7",
          "blockNumber": "0x750e73",
          "transactionHash": "0x7ee32be31ea2581e0010ed060da99264196a21c75f47d078a5bfe9b78e358e5f",
          "transactionIndex": "0x72",
          "logIndex": "0xa6",
          "removed": false
        }
      ],
      "logsBloom": "0x00000000000000000000000000000020000000000000000000000000000000000000000000000000000000000000000000000000000000000001000000000000000000000000000000000200000020000000000000008000000000000000000000000000020000000000000000000800000000000000000000000000000000020000000000000000000000000000000000000000000000000000000000000000000000000000001000000000000000000000000000000000000000000001000000000000000000000000000000000000000000000000000000000000000020000000000000000000000000000000000000000000000000000000000002000000",
      "type": "0x2",
      "transactionHash": "0x7ee32be31ea2581e0010ed060da99264196a21c75f47d078a5bfe9b78e358e5f",
      "transactionIndex": "0x72",
      "blockHash": "0x7142e250663cf5ba881a1baedf08055b98c796e6269074f5953ce96b1c794ed7",
      "blockNumber": "0x750e73",
      "gasUsed": "0xc3c7",
      "effectiveGasPrice": "0x204c6a849",
      "from": "0x6a439b14f527d8731794b982d785b72f5d245c6f",
      "to": "0x7db2542d15ac68c9958e8d73f32641ed9714fd6f",
      "contractAddress": null
    },
    {
      "status": "0x1",
      "cumulativeGasUsed": "0x8f0964",
      "logs": [
        {
          "address": "0x7db2542d15ac68c9958e8d73f32641ed9714fd6f",
          "topics": [
            "0x78f66d11c0fe8f0ce8dec169ad57f3438085a89b7371335b6e2b10e9685d7ecc",
            "0x00000000000000000000000094a9d9ac8a22534e3faca9f4e7f2e2cf85d5e4c8",
            "0x000000000000000000000000a2f78ab2355fe2f984d808b5cee7fd0a93d5270e"
          ],
          "data": "0x",
          "blockHash": "0x7142e250663cf5ba881a1baedf08055b98c796e6269074f5953ce96b1c794ed7",
          "blockNumber": "0x750e73",
          "transactionHash": "0xd114458196fe6b069f87fa6d4dcf641736aea61e2d024be0ae4f53f504ee5db2",
          "transactionIndex": "0x73",
          "logIndex": "0xa7",
          "removed": false
        }
      ],
      "logsBloom": "0x00000000000000000200000000000020000000000020000000000000000000000000000000000000000100000000000000000000000000000001000000000000000000000000000000000200000020000000000000000000000000000000000000000000000000000000000000000000000000000000000000000000000000020000000000000000000000000000000000000020000000000000000000000000000000000000001000000000000000000000000000000000000000000000000000000000000000000000000100000000000000000000020000000000000000000000000000000000000000000000000000000000000000000000000000000000",
      "type": "0x2",
      "transactionHash": "0xd114458196fe6b069f87fa6d4dcf641736aea61e2d024be0ae4f53f504ee5db2",
      "transactionIndex": "0x73",
      "blockHash": "0x7142e250663cf5ba881a1baedf08055b98c796e6269074f5953ce96b1c794ed7",
      "blockNumber": "0x750e73",
      "gasUsed": "0xc4b7",
      "effectiveGasPrice": "0x204c6a849",
      "from": "0x6a439b14f527d8731794b982d785b72f5d245c6f",
      "to": "0x7db2542d15ac68c9958e8d73f32641ed9714fd6f",
      "contractAddress": null
    }
  ],
  "libraries": [],
  "pending": [],
  "returns": {},
  "timestamp": 1739091794,
  "chain": 11155111,
  "commit": "7defbcd"
}